:1000000000F001208D0100002902000029020000FB
:10001000290200002902000029020000000000005F
:1000200000000000000000000000000029020000A5
:10003000290200000000000029020000290200003F
:1000400080B500AF00F05AF920BFFDE780B487B05B
:1000500000AFF860B9607A60FB687B61BB683B61A8
:1000600007E03A69531C3B617B69591C796112783E
:100070001A707B685A1E7A60002BF2D1FB68184612
:100080001C37BD4680BC704780B487B000AFF860B5
:10009000B9607A60FB687B61BB683B61FA68BB68EA
:1000A0009A420ED807E03A69531C3B617B69591CA0
:1000B000796112781A707B685A1E7A60002BF2D12F
:1000C00017E07A697B6813447B613A697B68134463
:1000D0003B6109E03B69013B3B617B69013B7B6123
:1000E0003B691A787B691A707B685A1E7A60002B0C
:1000F000F0D1FB6818461C37BD4680BC704780B401
:1001000087B000AFF860B9607A60FB687B6105E09A
:100110007B695A1C7A61BA68D2B21A707B685A1E1F
:100120007A60002BF4D1FB6818461C37BD4680BCB2
:10013000704780B487B000AFF860B9607A60FB6840
:100140007B61BB683B6116E07B695A1C7A611A7857
:100150003B69591C39611B789A420CD07B69013B81
:100160001A783B69013B1B789A4202D24FF0FF3369
:1001700007E0012305E07B685A1E7A60002BE3DC70
:10018000002318461C37BD4680BC704780B584B03C
:1001900000AF1C4B00221A604FF0804301221A600E
:1001A00000BF184B1B68002BFBD0174B1B68164A6F
:1001B00043F001031360154A154BD31AFB60154A2F
:1001C000154BD31ABB60154A154BD31A7B60FB68DD
:1001D0001A4614490E48FFF739FFFB68114A1344C9
:1001E000BA6819460C48FFF731FF7B681A460021B0
:1001F0000B48FFF784FFFFF723FF00BF1037BD4612
:1002000080BD00BF0001004040E5014000F08100DA
:1002100000F081000000002000000020000000200D
:1002200000000020140B000080B400AFFEE700BF08
:1002300080B485B000AF78607B681B01FB6003E091
:1002400000BFFB68013BFB60FB68002BF8D100BFDF
:100250001437BD4680BC704780B586B000AF78606B
:100260001F4B204A1A60204B20221A600023FB609B
:100270002EE021233B611CE000237B6113E01B4A3D
:100280001B497B6951F8233013607B690133194A9C
:10029000174951F82330136041F28830FFF7C8FF47
:1002A0007B6902337B617B69052BE8DD3B69013BA0
:1002B0003B613B69002BDFDC0C4B00221A600D4BCD
:1002C00000221A600C48FFF7B3FFFB680133FB60A4
:1002D000FA687B689A42CCDB00BF1837BD4680BD08
:1002E00014050050008868D114080050040500501F
:1002F000C80A000004080050A0860100B0B59AB0FA
:1003000000AF00F0D1F90520FFF7A6FF244B07F15D
:1003100050041D460FCD0FC495E8030084E8030088
:10032000204B07F12C041D460FCD0FC40FCD0FC479
:100330002B68238007F12C03184600F0E2F907F13F
:100340002803184600F02EFB174B07F110041D463A
:100350000FCD0FC495E80300206004342180134AB8
:100360003B461268114619800233120C1A7007F1CD
:100370001003184600F0C5F93B1D184600F016FAA8
:100380003B46184600F0BDF93B1D184600F0B9F990
:100390003B46184600F0B5F90548FFF749FFE6E788
:1003A000700A0000880A0000AC0A0000C40A0000BD
:1003B00040420F00000000000000000000000000AC
:1003C00080B483B000AF7860034A7B68136000BFDD
:1003D0000C37BD4680BC70472425004080B483B0F4
:1003E00000AF0346FB71FB79032B06D0032B25DC02
:1003F000002B09D0012B14D020E0164B1B68154AA6
:1004000023F00E03136020E0124B1B68114A43F0E7
:100410000E0313600F4B1B680E4A23F480731360A6
:1004200013E00C4B1B680B4A43F00E031360094B9F
:100430001B68084A43F48073136006E0054B1B6891
:10044000044A23F00E03136000BF00BF0C37BD4603
:1004500080BC70476C25004080B483B000AF034679
:10046000FB71074B1B6823F00102FB7903F00103CA
:10047000034913430B6000BF0C37BD4680BC704777
:100480006C25004080B400AF034B08221A6000BF07
:10049000BD4680BC704700BF0025004080B400AF5F
:1004A000034B00221A6000BFBD4680BC704700BFEE
:1004B0000025004080B400AF034B06221A6000BF45
:1004C000BD4680BC704700BF0C25004080B400AF23
:1004D000034B28221A6000BFBD4680BC704700BF96
:1004E0001425004080B400AF034B01221A6000BF06
:1004F000BD4680BC704700BF0820004080B400AFFC
:10050000034B01221A6000BFBD4680BC704700BF8C
:100510000020004080B400AF064B00221A60064B5A
:1005200000221A60054B00221A6000BFBD4680BC45
:10053000704700BF1C2100400820004020210040DF
:1005400080B483B000AF7860034A7B68136000BF5B
:100550000C37BD4680BC70474825004080B483B04E
:1005600000AF7860034A7B68136000BF0C37BD465C
:1005700080BC70474425004080B400AF00BF044BEE
:100580001B68002BFBD000BFBD4680BC704700BF7E
:100590002021004080B485B000AF78600023FB606C
:1005A00002E0FB680133FB60FB687A6813441B7848
:1005B000002BF6D1FB6818461437BD4680BC704747
:1005C00080B485B000AF786039607B68FB60FB6801
:1005D000DAB23B681A70FB681A0A3B680133D2B280
:1005E0001A70FB681A0C3B680233D2B21A70FB68AF
:1005F0001A0E3B680333D2B21A7000BF1437BD46DF
:1006000080BC704780B400AF074B00221A60074BD4
:1006100000221A60064B00221A60064B00221A6064
:1006200000BFBD4680BC7047082100404421004007
:10063000002000401021004080B483B000AF7860FB
:10064000064B01221A60064A7B681360054B0122A3
:100650001A6000BF0C37BD4680BC7047382500408B
:10066000342500400020004080B400AF00BF064B9E
:100670001B68002BFBD0054B1B68002BF7D000BF7D
:10068000BD4680BC704700BF1021004008210040DB
:1006900080B400AF034B01221A6000BFBD4680BC8E
:1006A000704700BF0420004080B500AFFFF7F6FEA2
:1006B0000648FFF785FE0320FFF790FEFFF7FAFEDE
:1006C000FFF704FFFFF7DEFE00BF80BD00502700EC
:1006D00080B584B000AF7860FFF71CFF0120FFF702
:1006E0002FFF7B681B783B7307F10C031846FFF75D
:1006F00035FFFFF7F7FEFFF73FFF00BF1037BD469E
:1007000080BD80B584B000AF7860FFF703FF7868E4
:10071000FFF740FFF860F868FFF712FF7868FFF70F
:100720001DFFFFF7DFFEFFF727FF00BF1037BD46B5
:1007300080BD80B584B000AF786007F10C03194626
:100740007868FFF73DFF07F10C031846FFF7D9FF64
:1007500000BF1037BD4680BD80B582B000AF786065
:10076000FFF750FF7868FFF767FFFFF77DFFFFF7A0
:100770008FFF00BF0837BD4680BD80B582B000AF97
:100780007860FFF73FFF7868FFF756FF00BF083734
:10079000BD4680BD80B400AF034B01221A6000BF8C
:1007A000BD4680BC704700BF2C20004080B584B09F
:1007B00000AF78600023FB6007F108031846FFF7DD
:1007C000CBFF3B7A0D2B05D1FB687A6813440022DE
:1007D0001A700DE007F108031846FFF779FFFB6870
:1007E0007A6813443A7A1A70FB680133FB60E3E7D6
:1007F0001037BD4680BD80B582B000AF074A3B1DB3
:100800001268114619800233120C1A703B1D1846EB
:10081000FFF777FF00BF0837BD4680BDE00A000044
:1008200080B400AF034B00221A6000BFBD4680BCFD
:10083000704700BF00C1004080B400AF034B0122ED
:100840001A6000BFBD4680BC704700BF00C00040BA
:1008500080B400AF00BF044B1B68002BFBD000BF6F
:10086000BD4680BC704700BF00C1004080B400AFEF
:10087000024B1B681846BD4680BC704708C5004047
:1008800080B582B000AFFFF7CBFFFFF7D5FFFFF7D2
:10089000DFFFFFF7EBFF78607B6818460837BD463F
:1008A00080BD00BF0000000000000000000000004C
:1008B00080B485B000AF78607B681B05FB6003E007
:1008C00000BFFB68013BFB60FB68002BF8D100BF59
:1008D0001437BD4680BC70470000000000000000D7
:1008E00090B58BB000AF7860114B07F10C040FCBC3
:1008F00084E80F0007F10C031846FFF702FF07F129
:100900001C031846FFF752FFFFF775FF07F11C03A2
:100910000849184600F07AF80346002B03D07B689C
:1009200001221A7000BF00BF2C37BD4690BD00BF2A
:10093000F80A0000F00A000080B584B000AF7860CB
:1009400007F108031846FFF718FFFFF799FFF86053
:10095000F868FFF7EEFEFFF74EFF0A20FFF7A8FF4B
:100960003B7A632B03D17B6800221A7000BF00BF63
:100970001037BD4680BD80B582B000AF78607B681F
:100980001B78002B02D0012B04D008E07868FFF719
:10099000A7FF03E07868FFF7CFFF00BF00BF08376D
:1009A000BD4680BD80B586B000AF78607B68002210
:1009B0001A70074A07F10C0307CA03C31A8007F12C
:1009C0000C031846FFF79DFE7868FFF7D4FFFBE79E
:1009D000080B000000000000000000000000000004
:1009E00080B485B000AF78600023FB6002E0FB6854
:1009F0000133FB60FB687A6813441B78002BF6D147
:100A0000FB6818461437BD4680BC704780B586B079
:100A100000AF786039607868FFF7E2FF38613868C6
:100A2000FFF7DEFFF8603A69FB689A4201D00023C5
:100A300016E000237B610EE07B697A6813441A7824
:100A40007B6939680B441B789A4201D0002307E088
:100A50007B6901337B617A693B699A42ECDB012354
:100A600018461837BD4680BD000000000000000099
:100A700066696E6F20612071756920747574746F7A
:100A80002062656E650A0D0054657374696E672097
:100A900074656D7065726174757265206170706CDB
:100AA00069636174696F6E0A0D000000506C6561C6
:100AB000736520696E707574206120776F72640AA7
:100AC0000D0000000A0D0000000020D0208800006A
:100AD000000008D00000000000000000000000003E
:100AE0000A0D0000000000000000000000000000EF
:100AF0007374617274000000496E736572742070C3
:100B0000726F6D70740A0D0077656C636F6D650AA6
:040B10000D000000D4
:040000030000018D6B
:00000001FF
