:1000000000F00120E501000055020000550200004B
:1000100055020000550200005502000000000000DB
:100020000000000000000000000000005502000079
:1000300055020000000000005502000055020000BB
:1000400080B500AF00F0C6F800F00AF920BFFDE768
:1000500080B487B000AFF860B9607A60FB687B61FC
:10006000BB683B6107E03A69531C3B617B69591CE3
:10007000796112781A707B685A1E7A60002BF2D16F
:10008000FB6818461C37BD4680BC704780B487B0FB
:1000900000AFF860B9607A60FB687B61BB683B6168
:1000A000FA68BB689A420ED807E03A69531C3B6174
:1000B0007B69591C796112781A707B685A1E7A60C4
:1000C000002BF2D117E07A697B6813447B613A69AF
:1000D0007B6813443B6109E03B69013B3B617B6901
:1000E000013B7B613B691A787B691A707B685A1EF9
:1000F0007A60002BF0D1FB6818461C37BD4680BCE7
:10010000704780B487B000AFF860B9607A60FB6870
:100110007B6105E07B695A1C7A61BA68D2B21A70B9
:100120007B685A1E7A60002BF4D1FB6818461C3796
:10013000BD4680BC704780B487B000AFF860B9603E
:100140007A60FB687B61BB683B6116E07B695A1C87
:100150007A611A783B69591C39611B789A420CD034
:100160007B69013B1A783B69013B1B789A4202D2BA
:100170004FF0FF3307E0012305E07B685A1E7A60E9
:10018000002BE3DC002318461C37BD4680BC7047BB
:1001900080B400AF074B00221A604FF08043012269
:1001A0001A6000BF034B1B68002BFBD000BFBD468D
:1001B00080BC70470001004080B400AF044B1B6856
:1001C000034A43F00103136000BFBD4680BC704783
:1001D00040E5014080B500AFFFF7DAFFFFF7ECFF25
:1001E00000BF80BD80B584B000AF134A134BD31A53
:1001F000FB60134A134BD31ABB60134A134BD31A39
:100200007B60FB681A4612490C48FFF721FFFB6828
:100210000F4A1344BA6819460A48FFF719FF7B686A
:100220001A4600210948FFF76CFFFFF709FF00BFDE
:100230001037BD4680BD00BF00F0810000F0810096
:10024000000000200000002000000020000000202E
:10025000C00C000080B400AFFEE700BF000000004B
:10026000B0B59AB000AF00F0E9F9264B07F15004A1
:100270001D460FCD0FC495E8030084E80300224B10
:1002800007F12C041D460FCD0FC40FCD0FC42B68F2
:10029000238000F07AFA07F12C03184600F0FBF9EE
:1002A00007F12803184600F012FC184B07F1100460
:1002B0001D460FCD0FC495E8030020600434218053
:1002C000134A3B461268114619800233120C1A7009
:1002D00007F11003184600F0DEF93B1D184600F048
:1002E0002FFA3B46184600F0D6F93B1D184600F0A1
:1002F000D2F93B46184600F0CEF9642000F030FBFE
:10030000E6E700BFB00B0000C80B0000EC0B0000DC
:10031000040C0000000000000000000000000000CD
:1003200080B483B000AF7860034A7B68136000BF7D
:100330000C37BD4680BC70472425004080B483B094
:1003400000AF0346FB71FB79032B06D0032B25DCA2
:10035000002B09D0012B14D020E0164B1B68154A46
:1003600023F00E03136020E0124B1B68114A43F088
:100370000E0313600F4B1B680E4A23F48073136047
:1003800013E00C4B1B680B4A43F00E031360094B40
:100390001B68084A43F48073136006E0054B1B6832
:1003A000044A23F00E03136000BF00BF0C37BD46A4
:1003B00080BC70476C25004080B483B000AF03461A
:1003C000FB71074B1B6823F00102FB7903F001036B
:1003D000034913430B6000BF0C37BD4680BC704718
:1003E0006C25004080B400AF034B08221A6000BFA8
:1003F000BD4680BC704700BF0025004080B400AF00
:10040000034B00221A6000BFBD4680BC704700BF8E
:100410000025004080B400AF034B06221A6000BFE5
:10042000BD4680BC704700BF0C25004080B400AFC3
:10043000034B28221A6000BFBD4680BC704700BF36
:100440001425004080B400AF034B01221A6000BFA6
:10045000BD4680BC704700BF0820004080B400AF9C
:10046000034B01221A6000BFBD4680BC704700BF2D
:100470000020004080B400AF064B00221A60064BFB
:1004800000221A60054B00221A6000BFBD4680BCE6
:10049000704700BF1C210040082000402021004080
:1004A00080B483B000AF7860034A7B68136000BFFC
:1004B0000C37BD4680BC70474825004080B483B0EF
:1004C00000AF7860034A7B68136000BF0C37BD46FD
:1004D00080BC70474425004080B400AF00BF044B8F
:1004E0001B68002BFBD000BFBD4680BC704700BF1F
:1004F0002021004080B485B000AF78600023FB600D
:1005000002E0FB680133FB60FB687A6813441B78E8
:10051000002BF6D1FB6818461437BD4680BC7047E7
:10052000B0B48BB000AF786039607B687B62184BE9
:1005300007F10C041D460FCD0FC42B6823703B68D8
:10054000043300221A7003233B62796A114BA3FB28
:100550000123DA0813469B0013445B00CA1A3B6A66
:1005600039680B4428323A4412F81C2C1A707B6A02
:10057000084AA2FB0323DB087B623B6A013B3B6228
:100580003B6A002BE1DA00BF2C37BD46B0BC704798
:10059000100C0000CDCCCCCC80B400AF074B0022B7
:1005A0001A60074B00221A60064B00221A60064BA5
:1005B00000221A6000BFBD4680BC70470821004081
:1005C00044210040002000401021004080B483B04E
:1005D00000AF7860064B01221A60064A7B68136000
:1005E000054B01221A6000BF0C37BD4680BC704726
:1005F00038250040342500400020004080B400AF82
:1006000000BF064B1B68002BFBD0054B1B68002B63
:10061000F7D000BFBD4680BC704700BF102100402E
:100620000821004080B400AF034B01221A6000BFD4
:10063000BD4680BC704700BF0420004080B500AFBD
:10064000FFF7DCFE0648FFF76BFE0320FFF776FEA0
:10065000FFF7E0FEFFF7EAFEFFF7C4FE00BF80BD34
:100660000050270080B584B000AF7860FFF702FF2C
:100670000120FFF715FF7B681B783B7307F10C0324
:100680001846FFF71BFFFFF7DDFEFFF725FF00BF52
:100690001037BD4680BD80B584B000AF7860FFF7ED
:1006A000E9FE7868FFF726FFF860F868FFF7F8FEC4
:1006B0007868FFF703FFFFF7C5FEFFF70DFF00BFE8
:1006C0001037BD4680BD80B584B000AF786007F1BB
:1006D000080319467868FFF723FF07F10803184657
:1006E000FFF7D9FF00BF1037BD4680BD80B582B08F
:1006F00000AF7860FFF750FF7868FFF767FFFFF7FC
:100700007DFFFFF78FFF00BF0837BD4680BD80B576
:1007100082B000AF7860FFF73FFF7868FFF756FFC1
:1007200000BF0837BD4680BD80B400AF034B012237
:100730001A6000BFBD4680BC704700BF2C2000403F
:1007400080B584B000AF78600023FB6007F1080338
:100750001846FFF7CBFF3B7A0D2B05D1FB687A6873
:10076000134400221A700DE007F108031846FFF742
:1007700079FFFB687A6813443A7A1A70FB68013390
:10078000FB60E3E71037BD4680BD80B582B000AFA7
:10079000074A3B1D1268114619800233120C1A7069
:1007A0003B1D1846FFF777FF00BF0837BD4680BDE9
:1007B000240C000000000000000000000000000009
:1007C00080B400AF034B00221A6000BFBD4680BC5E
:1007D000704700BF00C1004080B400AF034B01224E
:1007E0001A6000BFBD4680BC704700BF00C000401B
:1007F00080B400AF00BF044B1B68002BFBD000BFD0
:10080000BD4680BC704700BF00C1004080B400AF4F
:10081000034B1B689B081846BD4680BC704700BF51
:1008200008C5004080B485B000AF78602F4B1B68CE
:100830007A689A420AD82E4B1B687A6803FB02F248
:100840002C4B1B681344FB60FB6849E02A4B1B6878
:100850007A689A420AD8294B1B687A6803FB02F22D
:10086000274B1B681344FB60FB6839E0254B1B6872
:100870007A689A420AD8244B1B687A6803FB02F212
:10088000224B1B681344FB60FB6829E0204B1B686C
:100890007A689A420AD81F4B1B687A6803FB02F2F7
:1008A0001D4B1B681344FB60FB6819E01B4B1B6866
:1008B0007A689A420AD81A4B1B687A6803FB02F2DC
:1008C000184B1B681344FB60FB6809E0164B1B6860
:1008D0007A6803FB02F2154B1B681344FB60FB684C
:1008E00018461437BD4680BC704700BF60C5004045
:1008F00020C5004040C5004064C5004024C50040FC
:1009000044C5004068C5004028C5004048C50040B7
:100910006CC500402CC500404CC5004070C500406F
:1009200030C5004050C5004034C5004054C50040AB
:1009300080B582B000AFFFF743FFFFF74DFFFFF731
:1009400057FFFFF763FF78607868FFF76BFF386049
:100950007B6818460837BD4680BD00BF0000000018
:1009600080B485B000AF78607B681B05FB6003E056
:1009700000BFFB68013BFB60FB68002BF8D100BFA8
:100980001437BD4680BC7047000000000000000026
:10099000B0B594B000AF78601D4B07F120041D4640
:1009A0000FCD0FC40FCD0FC42B682370194B07F167
:1009B0000C041D460FCD0FC42B681A46228002344A
:1009C0001B0C237007F120031846FFF764FE07F1A4
:1009D00044031846FFF7B4FEFFF7D7FE07F14403C0
:1009E0000D49184600F0B2F80346002B05D07B688D
:1009F00001221A70FFF7C9FE07E007F10C03184641
:100A0000FFF749FEFFF7C1FE00BF5037BD46B0BD3E
:100A1000380C00005C0C0000300C000090B58BB06E
:100A200000AF7860002387F820301B4B07F11004DB
:100A30000FCB07C42380194A07F10C031268114633
:100A400019800233120C1A7007F120031846FFF7C1
:100A50005EFEFFF76DFF786207F110031846FFF79F
:100A60001AFE786AFFF72FFE07F10C031846FFF70E
:100A700012FEFFF78AFE0A20FFF772FF97F8203078
:100A8000632B05D17B6800221A70FFF77EFE00BF42
:100A900000BF2C37BD4690BD700C0000800C0000DC
:100AA00080B582B000AF78607B681B78002B02D0E5
:100AB000012B04D008E07868FFF76AFF03E078684C
:100AC000FFF7ACFF00BF00BF0837BD4680BDB0B523
:100AD00092B000AF78607B6800221A700D4B07F16E
:100AE0000C041D460FCD0FC40FCD0FC40FCD0FC486
:100AF00095E8070003C42280FFF747FE07F10C03C7
:100B00001846FFF7C8FDFFF740FE7868FFF7C8FFFB
:100B1000FBE700BF840C00000000000000000000A4
:100B200080B485B000AF78600023FB6002E0FB6812
:100B30000133FB60FB687A6813441B78002BF6D105
:100B4000FB6818461437BD4680BC704780B586B038
:100B500000AF786039607868FFF7E2FF3861386885
:100B6000FFF7DEFFF8603A69FB689A4201D0002384
:100B700016E000237B610EE07B697A6813441A78E3
:100B80007B6939680B441B789A4201D0002307E047
:100B90007B6901337B617A693B699A42ECDB012313
:100BA00018461837BD4680BD000000000000000058
:100BB00066696E6F20612071756920747574746F39
:100BC0002062656E650A0D0054657374696E672056
:100BD00074656D7065726174757265206170706C9A
:100BE00069636174696F6E0A0D000000506C656185
:100BF000736520696E707574206120776F72640A66
:100C00000D0000000A0D00000000000000000000C0
:100C10003031323334353637383961626364656672
:100C2000000000000A0D00000000000000000000AD
:100C30007374617274000000496E73657274207081
:100C4000726F6D70742028737461727420746F20D9
:100C5000626567696E290A0D0000000070726F6D91
:100C60007074206E6F7420666F756E640A0D0000DC
:100C700074656D70657261747572653A200000006C
:100C80002043000054656D70657261747572652053
:100C90004D6F6E69746F720A0D55736520277374FA
:100CA0006172742720746F20626567696E2C20273B
:100CB000632720746F2073746F702E0A0D0000007C
:04000003000001E513
:00000001FF
